{
  "_format": "hh-sol-artifact-1",
  "contractName": "TransferVoltaCoin",
  "sourceName": "contracts/TransferVoltaCoin.sol",
  "abi": [
    {
      "inputs": [],
      "stateMutability": "nonpayable",
      "type": "constructor"
    },
    {
      "anonymous": false,
      "inputs": [
        {
          "indexed": true,
          "internalType": "address",
          "name": "from",
          "type": "address"
        },
        {
          "indexed": true,
          "internalType": "address",
          "name": "to",
          "type": "address"
        },
        {
          "indexed": false,
          "internalType": "uint256",
          "name": "amount",
          "type": "uint256"
        }
      ],
      "name": "Transfer",
      "type": "event"
    },
    {
      "inputs": [
        {
          "internalType": "address",
          "name": "",
          "type": "address"
        }
      ],
      "name": "balances",
      "outputs": [
        {
          "internalType": "uint256",
          "name": "",
          "type": "uint256"
        }
      ],
      "stateMutability": "view",
      "type": "function"
    },
    {
      "inputs": [
        {
          "internalType": "address payable",
          "name": "_to",
          "type": "address"
        },
        {
          "internalType": "uint256",
          "name": "_amount",
          "type": "uint256"
        }
      ],
      "name": "transfer",
      "outputs": [],
      "stateMutability": "payable",
      "type": "function"
    }
  ],
  "bytecode": "0x608060405234801561001057600080fd5b5061039a806100206000396000f3fe6080604052600436106100295760003560e01c806327e235e31461002e578063a9059cbb1461006b575b600080fd5b34801561003a57600080fd5b50610055600480360381019061005091906101d1565b610087565b60405161006291906102a5565b60405180910390f35b610085600480360381019061008091906101fa565b61009f565b005b60006020528060005260406000206000915090505481565b803410156100e2576040517f08c379a00000000000000000000000000000000000000000000000000000000081526004016100d990610285565b60405180910390fd5b8173ffffffffffffffffffffffffffffffffffffffff166108fc829081150290604051600060405180830381858888f19350505050158015610128573d6000803e3d6000fd5b508173ffffffffffffffffffffffffffffffffffffffff163373ffffffffffffffffffffffffffffffffffffffff167fddf252ad1be2c89b69c2b068fc378daa952ba7f163c4a11628f55a4df523b3ef8360405161018691906102a5565b60405180910390a35050565b6000813590506101a18161031f565b92915050565b6000813590506101b681610336565b92915050565b6000813590506101cb8161034d565b92915050565b6000602082840312156101e357600080fd5b60006101f184828501610192565b91505092915050565b6000806040838503121561020d57600080fd5b600061021b858286016101a7565b925050602061022c858286016101bc565b9150509250929050565b60006102436017836102c0565b91507f496e73756666696369656e7420564f4c54412073656e740000000000000000006000830152602082019050919050565b61027f81610315565b82525050565b6000602082019050818103600083015261029e81610236565b9050919050565b60006020820190506102ba6000830184610276565b92915050565b600082825260208201905092915050565b60006102dc826102f5565b9050919050565b60006102ee826102f5565b9050919050565b600073ffffffffffffffffffffffffffffffffffffffff82169050919050565b6000819050919050565b610328816102d1565b811461033357600080fd5b50565b61033f816102e3565b811461034a57600080fd5b50565b61035681610315565b811461036157600080fd5b5056fea26469706673582212208e8cf1af4d421a464ace045c277c67878a9d097baf8f86651d2d23b80b0705c764736f6c63430008000033",
  "linkReferences": {},
  "deployedLinkReferences": {}
}